S014000046696E616C50726F6A6563742E737265634F
S11300000C9466000C9483000C9483000C9483007D
S11300100C9483000C9483000C9483000C94830050
S11300200C9483000C9483000C9483000C94830040
S11300300C9483000C9483000C9483000C94830030
S11300400C9483000C9483000C9483000C94830020
S11300500C9483000C9483000C9483000C94830010
S11300600C9483000C9483000C9483000C94830000
S11300700C9483000C9483000C9483000C948300F0
S11300800C9483000C9483000C9483000C948300E0
S11300900C9483000C9483000C9483000C948300D0
S11300A00C9483000C9483000C9483000C948300C0
S11300B00C9483000C9483000C9483000C948300B0
S11300C00C9483000C9483000C94830011241FBEB1
S11300D0CFEFD8E0DEBFCDBF11E0A0E0B1E0EEE2AB
S11300E0F3E002C005900D92A634B107D9F721E0E0
S11300F0A6E4B1E001C01D92A835B207E1F70E9461
S1130100D1000C9495010C9400001092C80088E171
S11301108093C90086E08093CA0080910001909189
S113012001019093CD008093CC0008958093CE007C
S11301308091C80086FFFCCFE8ECF0E08081806409
S1130140808308950F931F93CF93DF938C01C0E0B6
S1130150D0E003C00E9496002196F801EC0FFD1F29
S113016080818111F7CFDF91CF911F910F91089575
S113017084E591E00E94A20082E091E00E94A20046
S11301808CE491E00E94A20082E091E00E94A2002F
S113019080E591E00E94A20084E091E00E94A20028
S11301A0089511B88FEF82B98AB98BB90E9485007E
S11301B086E091E00E94A2004AE064E571E08CE0F0
S11301C090E00E9460014AE06CE471E08CE090E011
S11301D00E9460014AE060E571E08CE090E00E94DA
S11301E060010E94B800009920C0009BFECF80915E
S11301F04A0190914B01019690934B0180934A01DF
S113020080914A0190914B01499724F010924B013F
S113021010924A0180914A0190914B014AE064E5B1
S113022071E00E9460010E94B800019920C0039B04
S1130230FECF809148019091490101969093490124
S1130240809348018091480190914901CD9724F011
S113025010924901109248018091480190914901FE
S11302604AE06CE471E00E9460010E94B8000399C6
S113027020C0039BFECF80914601909147010196D7
S113028090934701809346018091460190914701E4
S1130290CD9724F0109247011092460180914601B7
S11302A0909147014AE060E571E00E9460010E947C
S11302B0B800059998CF059BFECF0E94B80093CF54
S11302C0BB274A3031F4992322F4BDE290958195FD
S11302D09F4F0C946C01BB27FB015527AA27880F5D
S11302E0991FAA1FA41710F0A41B83955051B9F7A6
S11302F0A05DAA3308F0A95DA193009779F7B11125
S1130300B1931192CB010C948501DC01FC01672FA0
S113031071917723E1F7329704C07C916D937083D8
S11103206291AE17BF07C8F30895F894FFCF9B
S113032E67003A000A00506C6561736520696E704F
S113033E75742063757272656E742074696D6520B0
S113034E7573696E672053696D6F6E20626F61728B
S113035E64207377697463686573202848483A4D3E
S109036E4D3A535329002F
S9030000FC
