:100000000C9466000C9483000C9483000C94830081
:100010000C9483000C9483000C9483000C94830054
:100020000C9483000C9483000C9483000C94830044
:100030000C9483000C94B6000C9483000C94830001
:100040000C9483000C9483000C9483000C94830024
:100050000C9483000C9483000C9483000C94830014
:100060000C9483000C9483000C9483000C94830004
:100070000C9483000C9483000C9483000C948300F4
:100080000C9452020C9483000C9483000C94830013
:100090000C9483000C9483000C9483000C948300D4
:1000A0000C9483000C9483000C9483000C948300C4
:1000B0000C9421030C9483000C9483000C94830013
:1000C0000C9483000C9483000C94830011241FBEB5
:1000D000CFEFD8E0DEBFCDBF13E0A0E0B1E0E2EFAC
:1000E000FEE002C005900D92A83CB107D9F724E0CC
:1000F000A8ECB3E001C01D92A230B207E1F70E9464
:10010000EE030C9477070C9400001092C80088E16D
:100110008093C90086E08093CA0080910401909189
:1001200005019093CD008093CC0008958093CE007C
:100130008091C80086FFFCCF8091C80080648093C6
:10014000C8000895CF93DF93EC018991882319F0BB
:100150000E949600FACFDF91CF91089586E091E05A
:100160000E94A20080E991E00C94A2001F920F92DD
:100170000FB60F9211248F939F93109285001092C7
:1001800084008091D8039091D90301969093D9036C
:100190008093D8038091D8039091D903CC976CF0C9
:1001A0001092D9031092D8038091DA039091DB0367
:1001B00001969093DB038093DA038091DA039091A8
:1001C000DB03CC976CF08091DC039091DD0301960A
:1001D0009093DD038093DC031092DB031092DA032B
:1001E0008091DC039091DD03499724F01092DD03A8
:1001F0001092DC039F918F910F900FBE0F901F9074
:1002000018958091DC039091DD039093CF03809348
:10021000CE034AE062EF73E00E94420782EF93E070
:100220000E94A20082E991E00E94A2008091DA037C
:100230009091DB039093CF038093CE034AE062EE6C
:1002400073E00E94420782EE93E00E94A20082E9DE
:1002500091E00E94A2008091D8039091D9039093DD
:10026000CF038093CE034AE066EE73E00E9442071C
:1002700086EE93E00E94A20080E991E00C94A20037
:1002800084E991E00E94A20080E991E00E94A2002E
:100290008091DC039091DD039093CF038093CE0394
:1002A0004AE062EF73E00E9442078091DA03909186
:1002B000DB039093CF038093CE034AE062EE73E0BA
:1002C0000E9442078091D8039091D9039093CF0365
:1002D0008093CE034AE066EE73E00E9442070C94DE
:1002E00001018091D6039091D7039093CD03809321
:1002F000CC034AE06AEE73E00E9442078AEE93E084
:100300000E94A20082E991E00E94A2008091020175
:10031000909103019093CD038093CC034AE06AEF60
:1003200073E00E9442078AEF93E00E94A20082E9F4
:1003300091E00E94A20080910001909101019093B0
:10034000CD038093CC034AE06EEF73E00E94420736
:100350008EEF93E00E94A20080E991E00C94A2004D
:100360008091D4039091D5039093CB038093CA03DB
:100370004AE06EED73E00E9442078EED93E00E942A
:10038000A20082E991E00E94A2008091D2039091A4
:10039000D3039093CB038093CA034AE06EEE73E0DD
:1003A0000E9442078EEE93E00E94A20082E991E053
:1003B0000E94A2008091D0039091D1039093CB032F
:1003C0008093CA034AE066EF73E00E94420786EF1B
:1003D00093E00E94A20080E991E00C94A2001092A8
:1003E0008000E1E8F0E080818861808310928500E0
:1003F00010928400EFE6F0E080818260808384E2E6
:1004000094EF909389008093880008951092900053
:10041000E1E9F0E08081886180831092950010927C
:100420009400E1E7F0E080818260808384E294EFD1
:10043000909399008093980008951092A000E1EAAB
:10044000F0E08081886180831092A5001092A40062
:10045000E2E7F0E080818260808384E294EF909311
:10046000A9008093A8000895E1E8F0E0808184600D
:1004700080830895E1E9F0E08081846080830895BD
:10048000E1EAF0E08081846080830895E1E8F0E0B3
:100490008081887F80830895E1E9F0E08081887F12
:1004A000808308951F920F920FB60F9211242F93FD
:1004B0003F934F935F936F937F938F939F93AF93EC
:1004C000BF93EF93FF931092950010929400809148
:1004D0000001909101010196909301018093000128
:1004E0008091000190910101CC976CF01092010174
:1004F0001092000180910201909103010196909366
:100500000301809302018091020190910301CC9735
:100510006CF08091D6039091D70301969093D70306
:100520008093D60310920301109202018091D603AA
:100530009091D703499724F01092D7031092D603D5
:100540008091D6039091D703019709F063C00E9470
:100550004C0284ED91E00E94A20080E991E00E94AB
:10056000A2001BB82FEF33ED80E3215030408040D4
:10057000E1F700C000008FEF8BB99FEF23ED30E370
:10058000915020403040E1F700C000001BB89FEFC1
:1005900023ED30E3915020403040E1F700C00000EF
:1005A0008BB99FEF23ED30E3915020403040E1F7CD
:1005B00000C000001BB89FEF23ED30E391502040B6
:1005C0003040E1F700C000008BB98FEF93ED20E3DE
:1005D000815090402040E1F700C000001092D70306
:1005E0001092D603109203011092020110920101A1
:1005F000109200018AEF91E00E94A20080E991E050
:100600000E94A2000E943A0283E090E09093C90306
:100610008093C803FF91EF91BF91AF919F918F910C
:100620007F916F915F914F913F912F910F900FBEEE
:100630000F901F901895E1EAF0E08081887F808319
:1006400008951F920F920FB60F9211242F933F938C
:100650004F935F936F937F938F939F93AF93BF93CA
:10066000EF93FF931092A5001092A4008091D00305
:100670009091D10301979093D1038093D0038091FF
:10068000D0039091D10397FF0FC08091D203909136
:10069000D30301979093D3038093D2038BE390E02D
:1006A0009093D1038093D0038091D2039091D30390
:1006B00097FF0FC08091D4039091D5030197909339
:1006C000D5038093D4038BE390E09093D30380937E
:1006D000D2038091D4039091D50397FF04C0109268
:1006E000D5031092D4038091D4039091D503892B24
:1006F00009F063C08091D2039091D303892B09F054
:100700005CC08091D0039091D103892B09F055C032
:100710000E941B0384E192E00E94A20080E991E024
:100720000E94A20081E292E00E94A20080E991E092
:100730000E94A2001BB82FEF33ED80E32150304020
:100740008040E1F700C000008FEF8BB99FEF23EDF1
:1007500030E3915020403040E1F700C000001BB86A
:100760009FEF23ED30E3915020403040E1F700C08F
:1007700000008BB99FEF23ED30E3915020403040D3
:10078000E1F700C000001BB89FEF23ED30E391506C
:1007900020403040E1F700C000008BB98FEF93EDAF
:1007A00020E3815090402040E1F700C0000082E04B
:1007B00090E09093C9038093C803FF91EF91BF919C
:1007C000AF919F918F917F916F915F914F913F91E9
:1007D0002F910F900FBE0F901F90189511B88FEFAB
:1007E00082B91DB88EB98AB98BB90E9485000E9462
:1007F000AE000E9440010E94EF010E9406020E948A
:100800001D02789481E090E09093C9038093C8031F
:10081000B3E02B2E312CC5E04C2E512CD4E06D2EA4
:10082000712CC3E0D0E005E010E084E0E82EF12C6C
:10083000A2E0CA2ED12C8091C8039091C9030597DC
:1008400041F08091C8039091C903019709F065C0F8
:100850004EC00E94340288248394912CF6E0AF2E7F
:10086000B12C8091C8039091C903059751F784E397
:1008700092E00E94A2000E9401012FEF83ED90E31D
:10088000215080409040E1F700C00000059906C06B
:10089000059BFECF9092C9038092C803069906C0BB
:1008A000069BFECFD092C903C092C803079906C029
:1008B000079BFECFD093C903C093C803049906C019
:1008C000049BFECFF092C903E092C803039906C0CF
:1008D000039BFECF1093C9030093C8036699C1CF51
:1008E000669BFECFB092C903A092C803BACF8CE337
:1008F00092E00E94A20080E991E00E94A2000E9482
:10090000460288248394912C76E0A72EB12C809106
:10091000C8039091C903019741F08091C803909159
:10092000C903069709F0BAC0A3C0009924C0009B70
:10093000FECF8091DC039091DD0301969093DD035F
:100940008093DC038091DC039091DD03499724F0D0
:100950001092DD031092DC038091DC039091DD03A3
:100960009093CF038093CE034AE062EF73E00E943E
:1009700042070E940101019924C0019BFECF809192
:10098000DA039091DB0301969093DB038093DA0303
:100990008091DA039091DB03CC9724F01092DB0373
:1009A0001092DA038091DA039091DB039093CF03E6
:1009B0008093CE034AE062EE73E00E9442070E94F9
:1009C0000101029924C0029BFECF8091D80390912F
:1009D000D90301969093D9038093D8038091D803CB
:1009E0009091D903CC9724F01092D9031092D80398
:1009F0008091D8039091D9039093CF038093CE0335
:100A00004AE066EE73E00E9442070E9401010599E8
:100A100006C0059BFECF9092C9038092C803069939
:100A200006C0069BFECFD092C903C092C8030799A7
:100A300006C0079BFECFD093C903C093C803049997
:100A400006C0049BFECFF092C903E092C80303994D
:100A500006C0039BFECF1093C9030093C803669999
:100A600056CF669BFECFB092C903A092C8034FCF6A
:100A70008DE692E00E94A20080E991E00E94A2002F
:100A80000E94400288248394912C56E0A52EB12C1C
:100A90008091C8039091C903069741F08091C803E3
:100AA0009091C903029709F073C04CC081EB92E0AA
:100AB0000E94A2000E94B0012FEF83ED90E321502D
:100AC00080409040E1F700C00000009904C0009B06
:100AD000FECF0E941B03019904C0019BFECF0E9420
:100AE0004002059906C0059BFECF9092C9038092F3
:100AF000C803069906C0069BFECFD092C903C092D8
:100B0000C803079906C0079BFECFD093C903C093C3
:100B1000C803049906C0049BFECFF092C903E0927B
:100B2000C803039906C0039BFECF1093C90300932B
:100B3000C8036699ADCF669BFECFB092C903A09261
:100B4000C803A6CF0E941B0389EB92E00E94A2007B
:100B500080E991E00E94A2008BEC92E00E94A2004A
:100B600080E991E00E94A20088EF92E00E94A2003A
:100B700080E991E00E94A20088248394912C36E0C1
:100B8000A32EB12C8091C8039091C903029741F024
:100B90008091C8039091C903039709F0C2C0A3C014
:100BA000009924C0009BFECF8091D4039091D5037F
:100BB00001969093D5038093D4038091D4039091B0
:100BC000D503499724F01092D5031092D403809155
:100BD000D4039091D5039093CB038093CA034AE04A
:100BE0006EED73E00E9442070E94B001019924C09B
:100BF000019BFECF8091D2039091D30301969093F5
:100C0000D3038093D2038091D2039091D303CC97E6
:100C100024F01092D3031092D2038091D2039091CA
:100C2000D3039093CB038093CA034AE06EEE73E044
:100C30000E9442070E94B001029924C0029BFECF8D
:100C40008091D0039091D10301969093D10380932A
:100C5000D0038091D0039091D103CC9724F01092CF
:100C6000D1031092D0038091D0039091D10390933F
:100C7000CB038093CA034AE066EF73E00E94420709
:100C80000E94B001059906C0059BFECF9092C90352
:100C90008092C803069906C0069BFECFD092C90376
:100CA000C092C803079906C0079BFECFD093C90323
:100CB000C093C803049906C0049BFECFF092C903F9
:100CC000E092C803039906C0039BFECF1093C903AB
:100CD0000093C803669956CF669BFECFB092C903B6
:100CE000A092C8034FCF85E693E00E94A20080E95E
:100CF00091E00E94A2008BE793E00E94A20080E9AD
:100D000091E00E94A2000E943A0288248394912CD0
:100D100096E0A92EB12C8091C8039091C903039746
:100D2000A1F08091C8039091C903049709F083CD85
:100D30000E94AE0080E991E00E94A20021E030E034
:100D400042E050E066E070E06CC08CEB93E00E9403
:100D5000A2000E9471012FEF83ED90E321508040AB
:100D60009040E1F700C00000009904C0009BFECF56
:100D70000E944C02019904C0019BFECF0E943A02DE
:100D8000029912C0029BFECF0E944C021092D70320
:100D90001092D603109203011092020110920101E9
:100DA000109200010E943A02059906C0059BFECFF1
:100DB0009092C9038092C803069906C0069BFECF95
:100DC000D092C903C092C803079906C0079BFECF03
:100DD000D093C903C093C803049906C0049BFECFF7
:100DE000F092C903E092C803039906C0039BFECFAB
:100DF0001093C9030093C80366998DCF669BFECFFD
:100E0000B092C903A092C80386CF059B11C0069B70
:100E100016C0079B1BC0049B20C0039B25C0669B7C
:100E20002AC08091C8039091C903049771F300CD43
:100E3000059BFECF3093C9032093C803E8CF069BE0
:100E4000FECF5093C9034093C803E3CF079BFECF67
:100E50003092C9032092C803DECF049BFECF70926C
:100E6000C9036092C803D9CF039BFECF5092C90338
:100E70004092C803D4CF669BFECF7093C9036093A2
:100E8000C803CFCFBB274A3031F4992322F4BDE207
:100E9000909581959F4F0C944E07BB27FB015527DA
:100EA000AA27880F991FAA1FA41710F0A41B8395C7
:100EB0005051B9F7A05DAA3308F0A95DA19300973E
:100EC00079F7B111B1931192CB010C946707DC0152
:100ED000FC01672F71917723E1F7329704C07C9171
:100EE0006D9370836291AE17BF07C8F30895F894AD
:020EF000FFCF32
:100EF20037003B0067004D454E553A205357372087
:100F0200746F206564697420636C6F636B207C204E
:100F120053573820666F722074696D6572207C2089
:100F220053573920666F722073746F7077617463E0
:100F320068207C2053573620746F20676F206261CF
:100F4200636B20746F206D656E75207C205357345F
:100F520020746F20646973706C617920637572729A
:100F6200656E742074696D65207C2053573520743A
:100F72006F20646973706C61792074696D657200A9
:100F82000A003A00506C6561736520696E70757471
:100F92002063757272656E742074696D6520757355
:100FA200696E672053696D6F6E20626F6172642093
:100FB2007377697463686573202848483A4D4D3ADF
:100FC2005353290053544F5057415443483A204FEA
:100FD2004E4520484F555220484153204245454EE8
:100FE2002052454143484544200053544F505741F5
:100FF20054434820484153204245454E20524553D0
:101002004554210054696D65723A20303A303A30C5
:1010120000434F554E54444F574E20434F4D504C72
:1010220045544500436C6F636B3A2000557365204D
:1010320053573120666F72204848207C20557365D3
:101042002053573220666F72204D4D207C205573FD
:10105200652053573320666F722053530053573124
:1010620020746F207061757365207C205357322085
:10107200746F20756E7061757365207C20535738CC
:1010820020746F206368616E67652074696D657294
:10109200207C2053573620666F72206D656E752056
:1010A2000054696D65723A2000546869732069734F
:1010B200207468652074696D657200506C65617397
:1010C2006520696E707574207374617274696E67DD
:1010D2002074696D6520746F20636F756E74646F20
:1010E200776E2066726F6D0053573120746F2063E4
:1010F20068616E676520686F757273207C20535734
:101102003220746F206368616E6765206D696E7549
:10111200746573207C2053573320746F2063686199
:101122006E6765207365636F6E6473207C2053570E
:101132003520746F2073746172742074696D6572E6
:10114200207C2053573620746F20676F20746F20E5
:101152006D656E75005468697320697320746865E3
:101162002073746F70776174636800535731207411
:101172006F207061757365207C2053573220746F25
:1011820020756E7061757365207C2053573320740F
:101192006F207265736574207C2053573620746FFC
:1011A20020676F20746F206D656E750053746F70C9
:0811B20077617463683A2000C4
:00000001FF
